{
	"Repo/Remix_beginner/test.sol": {
		"TestContract": {
			"abi": [
				{
					"inputs": [],
					"stateMutability": "nonpayable",
					"type": "constructor"
				},
				{
					"inputs": [],
					"name": "contractAdress",
					"outputs": [
						{
							"internalType": "address",
							"name": "",
							"type": "address"
						}
					],
					"stateMutability": "view",
					"type": "function"
				},
				{
					"inputs": [],
					"name": "contractBalance",
					"outputs": [
						{
							"internalType": "uint256",
							"name": "",
							"type": "uint256"
						}
					],
					"stateMutability": "view",
					"type": "function"
				},
				{
					"inputs": [],
					"name": "owner",
					"outputs": [
						{
							"internalType": "address",
							"name": "",
							"type": "address"
						}
					],
					"stateMutability": "view",
					"type": "function"
				},
				{
					"inputs": [],
					"name": "pay",
					"outputs": [],
					"stateMutability": "payable",
					"type": "function"
				},
				{
					"inputs": [
						{
							"internalType": "address",
							"name": "",
							"type": "address"
						}
					],
					"name": "payments",
					"outputs": [
						{
							"internalType": "uint256",
							"name": "",
							"type": "uint256"
						}
					],
					"stateMutability": "view",
					"type": "function"
				},
				{
					"inputs": [],
					"name": "transferAll",
					"outputs": [],
					"stateMutability": "nonpayable",
					"type": "function"
				}
			],
			"devdoc": {
				"kind": "dev",
				"methods": {},
				"version": 1
			},
			"evm": {
				"assembly": "    /* \"Repo/Remix_beginner/test.sol\":61:712  contract TestContract {... */\n  mstore(0x40, 0x80)\n    /* \"Repo/Remix_beginner/test.sol\":130:134  this */\n  address\n    /* \"Repo/Remix_beginner/test.sol\":90:135  address public contractAdress = address(this) */\n  0x00\n  dup1\n  0x0100\n  exp\n  dup2\n  sload\n  dup2\n  0xffffffffffffffffffffffffffffffffffffffff\n  mul\n  not\n  and\n  swap1\n  dup4\n  0xffffffffffffffffffffffffffffffffffffffff\n  and\n  mul\n  or\n  swap1\n  sstore\n  pop\n    /* \"Repo/Remix_beginner/test.sol\":250:299  constructor() {... */\n  callvalue\n  dup1\n  iszero\n  tag_1\n  jumpi\n  0x00\n  dup1\n  revert\ntag_1:\n  pop\n    /* \"Repo/Remix_beginner/test.sol\":282:292  msg.sender */\n  caller\n    /* \"Repo/Remix_beginner/test.sol\":274:279  owner */\n  0x01\n  0x00\n    /* \"Repo/Remix_beginner/test.sol\":274:292  owner = msg.sender */\n  0x0100\n  exp\n  dup2\n  sload\n  dup2\n  0xffffffffffffffffffffffffffffffffffffffff\n  mul\n  not\n  and\n  swap1\n  dup4\n  0xffffffffffffffffffffffffffffffffffffffff\n  and\n  mul\n  or\n  swap1\n  sstore\n  pop\n    /* \"Repo/Remix_beginner/test.sol\":61:712  contract TestContract {... */\n  dataSize(sub_0)\n  dup1\n  dataOffset(sub_0)\n  0x00\n  codecopy\n  0x00\n  return\nstop\n\nsub_0: assembly {\n        /* \"Repo/Remix_beginner/test.sol\":61:712  contract TestContract {... */\n      mstore(0x40, 0x80)\n      jumpi(tag_1, lt(calldatasize, 0x04))\n      shr(0xe0, calldataload(0x00))\n      dup1\n      0x051f4f6f\n      eq\n      tag_2\n      jumpi\n      dup1\n      0x1b9265b8\n      eq\n      tag_3\n      jumpi\n      dup1\n      0x8b7afe2e\n      eq\n      tag_4\n      jumpi\n      dup1\n      0x8da5cb5b\n      eq\n      tag_5\n      jumpi\n      dup1\n      0xe2982c21\n      eq\n      tag_6\n      jumpi\n      dup1\n      0xf0e15138\n      eq\n      tag_7\n      jumpi\n    tag_1:\n      0x00\n      dup1\n      revert\n        /* \"Repo/Remix_beginner/test.sol\":478:606  function transferAll() public {... */\n    tag_2:\n      callvalue\n      dup1\n      iszero\n      tag_8\n      jumpi\n      0x00\n      dup1\n      revert\n    tag_8:\n      pop\n      tag_9\n      tag_10\n      jump\t// in\n    tag_9:\n      stop\n        /* \"Repo/Remix_beginner/test.sol\":305:472  function pay() public payable {    //можно посмотреть был ли осуществлён перевод... */\n    tag_3:\n      tag_11\n      tag_12\n      jump\t// in\n    tag_11:\n      stop\n        /* \"Repo/Remix_beginner/test.sol\":612:710  function contractBalance() public view returns(uint) {... */\n    tag_4:\n      callvalue\n      dup1\n      iszero\n      tag_13\n      jumpi\n      0x00\n      dup1\n      revert\n    tag_13:\n      pop\n      tag_14\n      tag_15\n      jump\t// in\n    tag_14:\n      mload(0x40)\n      tag_16\n      swap2\n      swap1\n      tag_17\n      jump\t// in\n    tag_16:\n      mload(0x40)\n      dup1\n      swap2\n      sub\n      swap1\n      return\n        /* \"Repo/Remix_beginner/test.sol\":141:161  address public owner */\n    tag_5:\n      callvalue\n      dup1\n      iszero\n      tag_18\n      jumpi\n      0x00\n      dup1\n      revert\n    tag_18:\n      pop\n      tag_19\n      tag_20\n      jump\t// in\n    tag_19:\n      mload(0x40)\n      tag_21\n      swap2\n      swap1\n      tag_22\n      jump\t// in\n    tag_21:\n      mload(0x40)\n      dup1\n      swap2\n      sub\n      swap1\n      return\n        /* \"Repo/Remix_beginner/test.sol\":202:243  mapping (address => uint) public payments */\n    tag_6:\n      callvalue\n      dup1\n      iszero\n      tag_23\n      jumpi\n      0x00\n      dup1\n      revert\n    tag_23:\n      pop\n      tag_24\n      0x04\n      dup1\n      calldatasize\n      sub\n      dup2\n      add\n      swap1\n      tag_25\n      swap2\n      swap1\n      tag_26\n      jump\t// in\n    tag_25:\n      tag_27\n      jump\t// in\n    tag_24:\n      mload(0x40)\n      tag_28\n      swap2\n      swap1\n      tag_17\n      jump\t// in\n    tag_28:\n      mload(0x40)\n      dup1\n      swap2\n      sub\n      swap1\n      return\n        /* \"Repo/Remix_beginner/test.sol\":90:135  address public contractAdress = address(this) */\n    tag_7:\n      callvalue\n      dup1\n      iszero\n      tag_29\n      jumpi\n      0x00\n      dup1\n      revert\n    tag_29:\n      pop\n      tag_30\n      tag_31\n      jump\t// in\n    tag_30:\n      mload(0x40)\n      tag_32\n      swap2\n      swap1\n      tag_22\n      jump\t// in\n    tag_32:\n      mload(0x40)\n      dup1\n      swap2\n      sub\n      swap1\n      return\n        /* \"Repo/Remix_beginner/test.sol\":478:606  function transferAll() public {... */\n    tag_10:\n        /* \"Repo/Remix_beginner/test.sol\":518:537  address payable _to */\n      0x00\n        /* \"Repo/Remix_beginner/test.sol\":548:553  owner */\n      0x01\n      0x00\n      swap1\n      sload\n      swap1\n      0x0100\n      exp\n      swap1\n      div\n      0xffffffffffffffffffffffffffffffffffffffff\n      and\n        /* \"Repo/Remix_beginner/test.sol\":518:554  address payable _to = payable(owner) */\n      swap1\n      pop\n        /* \"Repo/Remix_beginner/test.sol\":564:567  _to */\n      dup1\n        /* \"Repo/Remix_beginner/test.sol\":564:576  _to.transfer */\n      0xffffffffffffffffffffffffffffffffffffffff\n      and\n        /* \"Repo/Remix_beginner/test.sol\":564:599  _to.transfer(address(this).balance) */\n      0x08fc\n        /* \"Repo/Remix_beginner/test.sol\":577:598  address(this).balance */\n      selfbalance\n        /* \"Repo/Remix_beginner/test.sol\":564:599  _to.transfer(address(this).balance) */\n      swap1\n      dup2\n      iszero\n      mul\n      swap1\n      mload(0x40)\n      0x00\n      mload(0x40)\n      dup1\n      dup4\n      sub\n      dup2\n      dup6\n      dup9\n      dup9\n      call\n      swap4\n      pop\n      pop\n      pop\n      pop\n      iszero\n      dup1\n      iszero\n      tag_35\n      jumpi\n      returndatasize\n      0x00\n      dup1\n      returndatacopy\n      revert(0x00, returndatasize)\n    tag_35:\n      pop\n        /* \"Repo/Remix_beginner/test.sol\":508:606  {... */\n      pop\n        /* \"Repo/Remix_beginner/test.sol\":478:606  function transferAll() public {... */\n      jump\t// out\n        /* \"Repo/Remix_beginner/test.sol\":305:472  function pay() public payable {    //можно посмотреть был ли осуществлён перевод... */\n    tag_12:\n        /* \"Repo/Remix_beginner/test.sol\":456:465  msg.value */\n      callvalue\n        /* \"Repo/Remix_beginner/test.sol\":432:440  payments */\n      0x02\n        /* \"Repo/Remix_beginner/test.sol\":432:452  payments[msg.sender] */\n      0x00\n        /* \"Repo/Remix_beginner/test.sol\":441:451  msg.sender */\n      caller\n        /* \"Repo/Remix_beginner/test.sol\":432:452  payments[msg.sender] */\n      0xffffffffffffffffffffffffffffffffffffffff\n      and\n      0xffffffffffffffffffffffffffffffffffffffff\n      and\n      dup2\n      mstore\n      0x20\n      add\n      swap1\n      dup2\n      mstore\n      0x20\n      add\n      0x00\n      keccak256\n      0x00\n        /* \"Repo/Remix_beginner/test.sol\":432:465  payments[msg.sender] += msg.value */\n      dup3\n      dup3\n      sload\n      tag_37\n      swap2\n      swap1\n      tag_38\n      jump\t// in\n    tag_37:\n      swap3\n      pop\n      pop\n      dup2\n      swap1\n      sstore\n      pop\n        /* \"Repo/Remix_beginner/test.sol\":305:472  function pay() public payable {    //можно посмотреть был ли осуществлён перевод... */\n      jump\t// out\n        /* \"Repo/Remix_beginner/test.sol\":612:710  function contractBalance() public view returns(uint) {... */\n    tag_15:\n        /* \"Repo/Remix_beginner/test.sol\":659:663  uint */\n      0x00\n        /* \"Repo/Remix_beginner/test.sol\":682:703  address(this).balance */\n      selfbalance\n        /* \"Repo/Remix_beginner/test.sol\":675:703  return address(this).balance */\n      swap1\n      pop\n        /* \"Repo/Remix_beginner/test.sol\":612:710  function contractBalance() public view returns(uint) {... */\n      swap1\n      jump\t// out\n        /* \"Repo/Remix_beginner/test.sol\":141:161  address public owner */\n    tag_20:\n      0x01\n      0x00\n      swap1\n      sload\n      swap1\n      0x0100\n      exp\n      swap1\n      div\n      0xffffffffffffffffffffffffffffffffffffffff\n      and\n      dup2\n      jump\t// out\n        /* \"Repo/Remix_beginner/test.sol\":202:243  mapping (address => uint) public payments */\n    tag_27:\n      mstore(0x20, 0x02)\n      dup1\n      0x00\n      mstore\n      keccak256(0x00, 0x40)\n      0x00\n      swap2\n      pop\n      swap1\n      pop\n      sload\n      dup2\n      jump\t// out\n        /* \"Repo/Remix_beginner/test.sol\":90:135  address public contractAdress = address(this) */\n    tag_31:\n      0x00\n      dup1\n      sload\n      swap1\n      0x0100\n      exp\n      swap1\n      div\n      0xffffffffffffffffffffffffffffffffffffffff\n      and\n      dup2\n      jump\t// out\n        /* \"#utility.yul\":7:146   */\n    tag_41:\n        /* \"#utility.yul\":53:58   */\n      0x00\n        /* \"#utility.yul\":91:97   */\n      dup2\n        /* \"#utility.yul\":78:98   */\n      calldataload\n        /* \"#utility.yul\":69:98   */\n      swap1\n      pop\n        /* \"#utility.yul\":107:140   */\n      tag_43\n        /* \"#utility.yul\":134:139   */\n      dup2\n        /* \"#utility.yul\":107:140   */\n      tag_44\n      jump\t// in\n    tag_43:\n        /* \"#utility.yul\":7:146   */\n      swap3\n      swap2\n      pop\n      pop\n      jump\t// out\n        /* \"#utility.yul\":152:481   */\n    tag_26:\n        /* \"#utility.yul\":211:217   */\n      0x00\n        /* \"#utility.yul\":260:262   */\n      0x20\n        /* \"#utility.yul\":248:257   */\n      dup3\n        /* \"#utility.yul\":239:246   */\n      dup5\n        /* \"#utility.yul\":235:258   */\n      sub\n        /* \"#utility.yul\":231:263   */\n      slt\n        /* \"#utility.yul\":228:347   */\n      iszero\n      tag_46\n      jumpi\n        /* \"#utility.yul\":266:345   */\n      tag_47\n      tag_48\n      jump\t// in\n    tag_47:\n        /* \"#utility.yul\":228:347   */\n    tag_46:\n        /* \"#utility.yul\":386:387   */\n      0x00\n        /* \"#utility.yul\":411:464   */\n      tag_49\n        /* \"#utility.yul\":456:463   */\n      dup5\n        /* \"#utility.yul\":447:453   */\n      dup3\n        /* \"#utility.yul\":436:445   */\n      dup6\n        /* \"#utility.yul\":432:454   */\n      add\n        /* \"#utility.yul\":411:464   */\n      tag_41\n      jump\t// in\n    tag_49:\n        /* \"#utility.yul\":401:464   */\n      swap2\n      pop\n        /* \"#utility.yul\":357:474   */\n      pop\n        /* \"#utility.yul\":152:481   */\n      swap3\n      swap2\n      pop\n      pop\n      jump\t// out\n        /* \"#utility.yul\":487:605   */\n    tag_50:\n        /* \"#utility.yul\":574:598   */\n      tag_52\n        /* \"#utility.yul\":592:597   */\n      dup2\n        /* \"#utility.yul\":574:598   */\n      tag_53\n      jump\t// in\n    tag_52:\n        /* \"#utility.yul\":569:572   */\n      dup3\n        /* \"#utility.yul\":562:599   */\n      mstore\n        /* \"#utility.yul\":487:605   */\n      pop\n      pop\n      jump\t// out\n        /* \"#utility.yul\":611:729   */\n    tag_54:\n        /* \"#utility.yul\":698:722   */\n      tag_56\n        /* \"#utility.yul\":716:721   */\n      dup2\n        /* \"#utility.yul\":698:722   */\n      tag_57\n      jump\t// in\n    tag_56:\n        /* \"#utility.yul\":693:696   */\n      dup3\n        /* \"#utility.yul\":686:723   */\n      mstore\n        /* \"#utility.yul\":611:729   */\n      pop\n      pop\n      jump\t// out\n        /* \"#utility.yul\":735:957   */\n    tag_22:\n        /* \"#utility.yul\":828:832   */\n      0x00\n        /* \"#utility.yul\":866:868   */\n      0x20\n        /* \"#utility.yul\":855:864   */\n      dup3\n        /* \"#utility.yul\":851:869   */\n      add\n        /* \"#utility.yul\":843:869   */\n      swap1\n      pop\n        /* \"#utility.yul\":879:950   */\n      tag_59\n        /* \"#utility.yul\":947:948   */\n      0x00\n        /* \"#utility.yul\":936:945   */\n      dup4\n        /* \"#utility.yul\":932:949   */\n      add\n        /* \"#utility.yul\":923:929   */\n      dup5\n        /* \"#utility.yul\":879:950   */\n      tag_50\n      jump\t// in\n    tag_59:\n        /* \"#utility.yul\":735:957   */\n      swap3\n      swap2\n      pop\n      pop\n      jump\t// out\n        /* \"#utility.yul\":963:1185   */\n    tag_17:\n        /* \"#utility.yul\":1056:1060   */\n      0x00\n        /* \"#utility.yul\":1094:1096   */\n      0x20\n        /* \"#utility.yul\":1083:1092   */\n      dup3\n        /* \"#utility.yul\":1079:1097   */\n      add\n        /* \"#utility.yul\":1071:1097   */\n      swap1\n      pop\n        /* \"#utility.yul\":1107:1178   */\n      tag_61\n        /* \"#utility.yul\":1175:1176   */\n      0x00\n        /* \"#utility.yul\":1164:1173   */\n      dup4\n        /* \"#utility.yul\":1160:1177   */\n      add\n        /* \"#utility.yul\":1151:1157   */\n      dup5\n        /* \"#utility.yul\":1107:1178   */\n      tag_54\n      jump\t// in\n    tag_61:\n        /* \"#utility.yul\":963:1185   */\n      swap3\n      swap2\n      pop\n      pop\n      jump\t// out\n        /* \"#utility.yul\":1272:1577   */\n    tag_38:\n        /* \"#utility.yul\":1312:1315   */\n      0x00\n        /* \"#utility.yul\":1331:1351   */\n      tag_65\n        /* \"#utility.yul\":1349:1350   */\n      dup3\n        /* \"#utility.yul\":1331:1351   */\n      tag_57\n      jump\t// in\n    tag_65:\n        /* \"#utility.yul\":1326:1351   */\n      swap2\n      pop\n        /* \"#utility.yul\":1365:1385   */\n      tag_66\n        /* \"#utility.yul\":1383:1384   */\n      dup4\n        /* \"#utility.yul\":1365:1385   */\n      tag_57\n      jump\t// in\n    tag_66:\n        /* \"#utility.yul\":1360:1385   */\n      swap3\n      pop\n        /* \"#utility.yul\":1519:1520   */\n      dup3\n        /* \"#utility.yul\":1451:1517   */\n      0xffffffffffffffffffffffffffffffffffffffffffffffffffffffffffffffff\n        /* \"#utility.yul\":1447:1521   */\n      sub\n        /* \"#utility.yul\":1444:1445   */\n      dup3\n        /* \"#utility.yul\":1441:1522   */\n      gt\n        /* \"#utility.yul\":1438:1545   */\n      iszero\n      tag_67\n      jumpi\n        /* \"#utility.yul\":1525:1543   */\n      tag_68\n      tag_69\n      jump\t// in\n    tag_68:\n        /* \"#utility.yul\":1438:1545   */\n    tag_67:\n        /* \"#utility.yul\":1569:1570   */\n      dup3\n        /* \"#utility.yul\":1566:1567   */\n      dup3\n        /* \"#utility.yul\":1562:1571   */\n      add\n        /* \"#utility.yul\":1555:1571   */\n      swap1\n      pop\n        /* \"#utility.yul\":1272:1577   */\n      swap3\n      swap2\n      pop\n      pop\n      jump\t// out\n        /* \"#utility.yul\":1583:1679   */\n    tag_53:\n        /* \"#utility.yul\":1620:1627   */\n      0x00\n        /* \"#utility.yul\":1649:1673   */\n      tag_71\n        /* \"#utility.yul\":1667:1672   */\n      dup3\n        /* \"#utility.yul\":1649:1673   */\n      tag_72\n      jump\t// in\n    tag_71:\n        /* \"#utility.yul\":1638:1673   */\n      swap1\n      pop\n        /* \"#utility.yul\":1583:1679   */\n      swap2\n      swap1\n      pop\n      jump\t// out\n        /* \"#utility.yul\":1685:1811   */\n    tag_72:\n        /* \"#utility.yul\":1722:1729   */\n      0x00\n        /* \"#utility.yul\":1762:1804   */\n      0xffffffffffffffffffffffffffffffffffffffff\n        /* \"#utility.yul\":1755:1760   */\n      dup3\n        /* \"#utility.yul\":1751:1805   */\n      and\n        /* \"#utility.yul\":1740:1805   */\n      swap1\n      pop\n        /* \"#utility.yul\":1685:1811   */\n      swap2\n      swap1\n      pop\n      jump\t// out\n        /* \"#utility.yul\":1817:1894   */\n    tag_57:\n        /* \"#utility.yul\":1854:1861   */\n      0x00\n        /* \"#utility.yul\":1883:1888   */\n      dup2\n        /* \"#utility.yul\":1872:1888   */\n      swap1\n      pop\n        /* \"#utility.yul\":1817:1894   */\n      swap2\n      swap1\n      pop\n      jump\t// out\n        /* \"#utility.yul\":1900:2080   */\n    tag_69:\n        /* \"#utility.yul\":1948:2025   */\n      0x4e487b7100000000000000000000000000000000000000000000000000000000\n        /* \"#utility.yul\":1945:1946   */\n      0x00\n        /* \"#utility.yul\":1938:2026   */\n      mstore\n        /* \"#utility.yul\":2045:2049   */\n      0x11\n        /* \"#utility.yul\":2042:2043   */\n      0x04\n        /* \"#utility.yul\":2035:2050   */\n      mstore\n        /* \"#utility.yul\":2069:2073   */\n      0x24\n        /* \"#utility.yul\":2066:2067   */\n      0x00\n        /* \"#utility.yul\":2059:2074   */\n      revert\n        /* \"#utility.yul\":2209:2326   */\n    tag_48:\n        /* \"#utility.yul\":2318:2319   */\n      0x00\n        /* \"#utility.yul\":2315:2316   */\n      dup1\n        /* \"#utility.yul\":2308:2320   */\n      revert\n        /* \"#utility.yul\":2332:2454   */\n    tag_44:\n        /* \"#utility.yul\":2405:2429   */\n      tag_80\n        /* \"#utility.yul\":2423:2428   */\n      dup2\n        /* \"#utility.yul\":2405:2429   */\n      tag_53\n      jump\t// in\n    tag_80:\n        /* \"#utility.yul\":2398:2403   */\n      dup2\n        /* \"#utility.yul\":2395:2430   */\n      eq\n        /* \"#utility.yul\":2385:2448   */\n      tag_81\n      jumpi\n        /* \"#utility.yul\":2444:2445   */\n      0x00\n        /* \"#utility.yul\":2441:2442   */\n      dup1\n        /* \"#utility.yul\":2434:2446   */\n      revert\n        /* \"#utility.yul\":2385:2448   */\n    tag_81:\n        /* \"#utility.yul\":2332:2454   */\n      pop\n      jump\t// out\n\n    auxdata: 0xa26469706673582212205b17cfea94895baf9c04833772281871ec73e07fc2039d5b80d49adfa9846c9264736f6c63430008070033\n}\n",
				"bytecode": {
					"linkReferences": {},
					"object": "6080604052306000806101000a81548173ffffffffffffffffffffffffffffffffffffffff021916908373ffffffffffffffffffffffffffffffffffffffff16021790555034801561005057600080fd5b5033600160006101000a81548173ffffffffffffffffffffffffffffffffffffffff021916908373ffffffffffffffffffffffffffffffffffffffff160217905550610415806100a16000396000f3fe6080604052600436106100555760003560e01c8063051f4f6f1461005a5780631b9265b8146100715780638b7afe2e1461007b5780638da5cb5b146100a6578063e2982c21146100d1578063f0e151381461010e575b600080fd5b34801561006657600080fd5b5061006f610139565b005b6100796101aa565b005b34801561008757600080fd5b50610090610202565b60405161009d91906102e7565b60405180910390f35b3480156100b257600080fd5b506100bb61020a565b6040516100c891906102cc565b60405180910390f35b3480156100dd57600080fd5b506100f860048036038101906100f39190610281565b610230565b60405161010591906102e7565b60405180910390f35b34801561011a57600080fd5b50610123610248565b60405161013091906102cc565b60405180910390f35b6000600160009054906101000a900473ffffffffffffffffffffffffffffffffffffffff1690508073ffffffffffffffffffffffffffffffffffffffff166108fc479081150290604051600060405180830381858888f193505050501580156101a6573d6000803e3d6000fd5b5050565b34600260003373ffffffffffffffffffffffffffffffffffffffff1673ffffffffffffffffffffffffffffffffffffffff16815260200190815260200160002060008282546101f99190610302565b92505081905550565b600047905090565b600160009054906101000a900473ffffffffffffffffffffffffffffffffffffffff1681565b60026020528060005260406000206000915090505481565b60008054906101000a900473ffffffffffffffffffffffffffffffffffffffff1681565b60008135905061027b816103c8565b92915050565b600060208284031215610297576102966103c3565b5b60006102a58482850161026c565b91505092915050565b6102b781610358565b82525050565b6102c68161038a565b82525050565b60006020820190506102e160008301846102ae565b92915050565b60006020820190506102fc60008301846102bd565b92915050565b600061030d8261038a565b91506103188361038a565b9250827fffffffffffffffffffffffffffffffffffffffffffffffffffffffffffffffff0382111561034d5761034c610394565b5b828201905092915050565b60006103638261036a565b9050919050565b600073ffffffffffffffffffffffffffffffffffffffff82169050919050565b6000819050919050565b7f4e487b7100000000000000000000000000000000000000000000000000000000600052601160045260246000fd5b600080fd5b6103d181610358565b81146103dc57600080fd5b5056fea26469706673582212205b17cfea94895baf9c04833772281871ec73e07fc2039d5b80d49adfa9846c9264736f6c63430008070033",
					"opcodes": "PUSH1 0x80 PUSH1 0x40 MSTORE ADDRESS PUSH1 0x0 DUP1 PUSH2 0x100 EXP DUP2 SLOAD DUP2 PUSH20 0xFFFFFFFFFFFFFFFFFFFFFFFFFFFFFFFFFFFFFFFF MUL NOT AND SWAP1 DUP4 PUSH20 0xFFFFFFFFFFFFFFFFFFFFFFFFFFFFFFFFFFFFFFFF AND MUL OR SWAP1 SSTORE POP CALLVALUE DUP1 ISZERO PUSH2 0x50 JUMPI PUSH1 0x0 DUP1 REVERT JUMPDEST POP CALLER PUSH1 0x1 PUSH1 0x0 PUSH2 0x100 EXP DUP2 SLOAD DUP2 PUSH20 0xFFFFFFFFFFFFFFFFFFFFFFFFFFFFFFFFFFFFFFFF MUL NOT AND SWAP1 DUP4 PUSH20 0xFFFFFFFFFFFFFFFFFFFFFFFFFFFFFFFFFFFFFFFF AND MUL OR SWAP1 SSTORE POP PUSH2 0x415 DUP1 PUSH2 0xA1 PUSH1 0x0 CODECOPY PUSH1 0x0 RETURN INVALID PUSH1 0x80 PUSH1 0x40 MSTORE PUSH1 0x4 CALLDATASIZE LT PUSH2 0x55 JUMPI PUSH1 0x0 CALLDATALOAD PUSH1 0xE0 SHR DUP1 PUSH4 0x51F4F6F EQ PUSH2 0x5A JUMPI DUP1 PUSH4 0x1B9265B8 EQ PUSH2 0x71 JUMPI DUP1 PUSH4 0x8B7AFE2E EQ PUSH2 0x7B JUMPI DUP1 PUSH4 0x8DA5CB5B EQ PUSH2 0xA6 JUMPI DUP1 PUSH4 0xE2982C21 EQ PUSH2 0xD1 JUMPI DUP1 PUSH4 0xF0E15138 EQ PUSH2 0x10E JUMPI JUMPDEST PUSH1 0x0 DUP1 REVERT JUMPDEST CALLVALUE DUP1 ISZERO PUSH2 0x66 JUMPI PUSH1 0x0 DUP1 REVERT JUMPDEST POP PUSH2 0x6F PUSH2 0x139 JUMP JUMPDEST STOP JUMPDEST PUSH2 0x79 PUSH2 0x1AA JUMP JUMPDEST STOP JUMPDEST CALLVALUE DUP1 ISZERO PUSH2 0x87 JUMPI PUSH1 0x0 DUP1 REVERT JUMPDEST POP PUSH2 0x90 PUSH2 0x202 JUMP JUMPDEST PUSH1 0x40 MLOAD PUSH2 0x9D SWAP2 SWAP1 PUSH2 0x2E7 JUMP JUMPDEST PUSH1 0x40 MLOAD DUP1 SWAP2 SUB SWAP1 RETURN JUMPDEST CALLVALUE DUP1 ISZERO PUSH2 0xB2 JUMPI PUSH1 0x0 DUP1 REVERT JUMPDEST POP PUSH2 0xBB PUSH2 0x20A JUMP JUMPDEST PUSH1 0x40 MLOAD PUSH2 0xC8 SWAP2 SWAP1 PUSH2 0x2CC JUMP JUMPDEST PUSH1 0x40 MLOAD DUP1 SWAP2 SUB SWAP1 RETURN JUMPDEST CALLVALUE DUP1 ISZERO PUSH2 0xDD JUMPI PUSH1 0x0 DUP1 REVERT JUMPDEST POP PUSH2 0xF8 PUSH1 0x4 DUP1 CALLDATASIZE SUB DUP2 ADD SWAP1 PUSH2 0xF3 SWAP2 SWAP1 PUSH2 0x281 JUMP JUMPDEST PUSH2 0x230 JUMP JUMPDEST PUSH1 0x40 MLOAD PUSH2 0x105 SWAP2 SWAP1 PUSH2 0x2E7 JUMP JUMPDEST PUSH1 0x40 MLOAD DUP1 SWAP2 SUB SWAP1 RETURN JUMPDEST CALLVALUE DUP1 ISZERO PUSH2 0x11A JUMPI PUSH1 0x0 DUP1 REVERT JUMPDEST POP PUSH2 0x123 PUSH2 0x248 JUMP JUMPDEST PUSH1 0x40 MLOAD PUSH2 0x130 SWAP2 SWAP1 PUSH2 0x2CC JUMP JUMPDEST PUSH1 0x40 MLOAD DUP1 SWAP2 SUB SWAP1 RETURN JUMPDEST PUSH1 0x0 PUSH1 0x1 PUSH1 0x0 SWAP1 SLOAD SWAP1 PUSH2 0x100 EXP SWAP1 DIV PUSH20 0xFFFFFFFFFFFFFFFFFFFFFFFFFFFFFFFFFFFFFFFF AND SWAP1 POP DUP1 PUSH20 0xFFFFFFFFFFFFFFFFFFFFFFFFFFFFFFFFFFFFFFFF AND PUSH2 0x8FC SELFBALANCE SWAP1 DUP2 ISZERO MUL SWAP1 PUSH1 0x40 MLOAD PUSH1 0x0 PUSH1 0x40 MLOAD DUP1 DUP4 SUB DUP2 DUP6 DUP9 DUP9 CALL SWAP4 POP POP POP POP ISZERO DUP1 ISZERO PUSH2 0x1A6 JUMPI RETURNDATASIZE PUSH1 0x0 DUP1 RETURNDATACOPY RETURNDATASIZE PUSH1 0x0 REVERT JUMPDEST POP POP JUMP JUMPDEST CALLVALUE PUSH1 0x2 PUSH1 0x0 CALLER PUSH20 0xFFFFFFFFFFFFFFFFFFFFFFFFFFFFFFFFFFFFFFFF AND PUSH20 0xFFFFFFFFFFFFFFFFFFFFFFFFFFFFFFFFFFFFFFFF AND DUP2 MSTORE PUSH1 0x20 ADD SWAP1 DUP2 MSTORE PUSH1 0x20 ADD PUSH1 0x0 KECCAK256 PUSH1 0x0 DUP3 DUP3 SLOAD PUSH2 0x1F9 SWAP2 SWAP1 PUSH2 0x302 JUMP JUMPDEST SWAP3 POP POP DUP2 SWAP1 SSTORE POP JUMP JUMPDEST PUSH1 0x0 SELFBALANCE SWAP1 POP SWAP1 JUMP JUMPDEST PUSH1 0x1 PUSH1 0x0 SWAP1 SLOAD SWAP1 PUSH2 0x100 EXP SWAP1 DIV PUSH20 0xFFFFFFFFFFFFFFFFFFFFFFFFFFFFFFFFFFFFFFFF AND DUP2 JUMP JUMPDEST PUSH1 0x2 PUSH1 0x20 MSTORE DUP1 PUSH1 0x0 MSTORE PUSH1 0x40 PUSH1 0x0 KECCAK256 PUSH1 0x0 SWAP2 POP SWAP1 POP SLOAD DUP2 JUMP JUMPDEST PUSH1 0x0 DUP1 SLOAD SWAP1 PUSH2 0x100 EXP SWAP1 DIV PUSH20 0xFFFFFFFFFFFFFFFFFFFFFFFFFFFFFFFFFFFFFFFF AND DUP2 JUMP JUMPDEST PUSH1 0x0 DUP2 CALLDATALOAD SWAP1 POP PUSH2 0x27B DUP2 PUSH2 0x3C8 JUMP JUMPDEST SWAP3 SWAP2 POP POP JUMP JUMPDEST PUSH1 0x0 PUSH1 0x20 DUP3 DUP5 SUB SLT ISZERO PUSH2 0x297 JUMPI PUSH2 0x296 PUSH2 0x3C3 JUMP JUMPDEST JUMPDEST PUSH1 0x0 PUSH2 0x2A5 DUP5 DUP3 DUP6 ADD PUSH2 0x26C JUMP JUMPDEST SWAP2 POP POP SWAP3 SWAP2 POP POP JUMP JUMPDEST PUSH2 0x2B7 DUP2 PUSH2 0x358 JUMP JUMPDEST DUP3 MSTORE POP POP JUMP JUMPDEST PUSH2 0x2C6 DUP2 PUSH2 0x38A JUMP JUMPDEST DUP3 MSTORE POP POP JUMP JUMPDEST PUSH1 0x0 PUSH1 0x20 DUP3 ADD SWAP1 POP PUSH2 0x2E1 PUSH1 0x0 DUP4 ADD DUP5 PUSH2 0x2AE JUMP JUMPDEST SWAP3 SWAP2 POP POP JUMP JUMPDEST PUSH1 0x0 PUSH1 0x20 DUP3 ADD SWAP1 POP PUSH2 0x2FC PUSH1 0x0 DUP4 ADD DUP5 PUSH2 0x2BD JUMP JUMPDEST SWAP3 SWAP2 POP POP JUMP JUMPDEST PUSH1 0x0 PUSH2 0x30D DUP3 PUSH2 0x38A JUMP JUMPDEST SWAP2 POP PUSH2 0x318 DUP4 PUSH2 0x38A JUMP JUMPDEST SWAP3 POP DUP3 PUSH32 0xFFFFFFFFFFFFFFFFFFFFFFFFFFFFFFFFFFFFFFFFFFFFFFFFFFFFFFFFFFFFFFFF SUB DUP3 GT ISZERO PUSH2 0x34D JUMPI PUSH2 0x34C PUSH2 0x394 JUMP JUMPDEST JUMPDEST DUP3 DUP3 ADD SWAP1 POP SWAP3 SWAP2 POP POP JUMP JUMPDEST PUSH1 0x0 PUSH2 0x363 DUP3 PUSH2 0x36A JUMP JUMPDEST SWAP1 POP SWAP2 SWAP1 POP JUMP JUMPDEST PUSH1 0x0 PUSH20 0xFFFFFFFFFFFFFFFFFFFFFFFFFFFFFFFFFFFFFFFF DUP3 AND SWAP1 POP SWAP2 SWAP1 POP JUMP JUMPDEST PUSH1 0x0 DUP2 SWAP1 POP SWAP2 SWAP1 POP JUMP JUMPDEST PUSH32 0x4E487B7100000000000000000000000000000000000000000000000000000000 PUSH1 0x0 MSTORE PUSH1 0x11 PUSH1 0x4 MSTORE PUSH1 0x24 PUSH1 0x0 REVERT JUMPDEST PUSH1 0x0 DUP1 REVERT JUMPDEST PUSH2 0x3D1 DUP2 PUSH2 0x358 JUMP JUMPDEST DUP2 EQ PUSH2 0x3DC JUMPI PUSH1 0x0 DUP1 REVERT JUMPDEST POP JUMP INVALID LOG2 PUSH5 0x6970667358 0x22 SLT KECCAK256 JUMPDEST OR 0xCF 0xEA SWAP5 DUP10 JUMPDEST 0xAF SWAP13 DIV DUP4 CALLDATACOPY PUSH19 0x281871EC73E07FC2039D5B80D49ADFA9846C92 PUSH5 0x736F6C6343 STOP ADDMOD SMOD STOP CALLER "
				},
				"gasEstimates": {
					"creation": {
						"codeDepositCost": "209000",
						"executionCost": "48783",
						"totalCost": "257783"
					},
					"external": {
						"contractAdress()": "2599",
						"contractBalance()": "361",
						"owner()": "2558",
						"pay()": "infinite",
						"payments(address)": "2880",
						"transferAll()": "infinite"
					}
				},
				"methodIdentifiers": {
					"contractAdress()": "f0e15138",
					"contractBalance()": "8b7afe2e",
					"owner()": "8da5cb5b",
					"pay()": "1b9265b8",
					"payments(address)": "e2982c21",
					"transferAll()": "051f4f6f"
				}
			},
			"storageLayout": {
				"storage": [
					{
						"astId": 7,
						"contract": "Repo/Remix_beginner/test.sol:TestContract",
						"label": "contractAdress",
						"offset": 0,
						"slot": "0",
						"type": "t_address"
					},
					{
						"astId": 9,
						"contract": "Repo/Remix_beginner/test.sol:TestContract",
						"label": "owner",
						"offset": 0,
						"slot": "1",
						"type": "t_address"
					},
					{
						"astId": 13,
						"contract": "Repo/Remix_beginner/test.sol:TestContract",
						"label": "payments",
						"offset": 0,
						"slot": "2",
						"type": "t_mapping(t_address,t_uint256)"
					}
				],
				"types": {
					"t_address": {
						"encoding": "inplace",
						"label": "address",
						"numberOfBytes": "20"
					},
					"t_mapping(t_address,t_uint256)": {
						"encoding": "mapping",
						"key": "t_address",
						"label": "mapping(address => uint256)",
						"numberOfBytes": "32",
						"value": "t_uint256"
					},
					"t_uint256": {
						"encoding": "inplace",
						"label": "uint256",
						"numberOfBytes": "32"
					}
				}
			},
			"userdoc": {
				"kind": "user",
				"methods": {},
				"version": 1
			}
		}
	}
}