{
	"Repo/Remix_beginner/test.sol": {
		"TestContract": {
			"abi": [
				{
					"inputs": [],
					"stateMutability": "nonpayable",
					"type": "constructor"
				},
				{
					"inputs": [],
					"name": "getContractBalance",
					"outputs": [
						{
							"internalType": "uint256",
							"name": "",
							"type": "uint256"
						}
					],
					"stateMutability": "view",
					"type": "function"
				},
				{
					"inputs": [],
					"name": "getOwner",
					"outputs": [
						{
							"internalType": "address",
							"name": "",
							"type": "address"
						}
					],
					"stateMutability": "view",
					"type": "function"
				},
				{
					"inputs": [],
					"name": "pay",
					"outputs": [],
					"stateMutability": "payable",
					"type": "function"
				},
				{
					"inputs": [],
					"name": "tranferToOwner",
					"outputs": [],
					"stateMutability": "nonpayable",
					"type": "function"
				},
				{
					"inputs": [
						{
							"internalType": "address",
							"name": "_address",
							"type": "address"
						}
					],
					"name": "viewingPaymants",
					"outputs": [
						{
							"internalType": "uint256",
							"name": "",
							"type": "uint256"
						}
					],
					"stateMutability": "view",
					"type": "function"
				}
			],
			"devdoc": {
				"kind": "dev",
				"methods": {},
				"version": 1
			},
			"evm": {
				"assembly": "    /* \"Repo/Remix_beginner/test.sol\":61:719  contract TestContract {... */\n  mstore(0x40, 0x80)\n    /* \"Repo/Remix_beginner/test.sol\":166:216  constructor () {... */\n  callvalue\n  dup1\n  iszero\n  tag_1\n  jumpi\n  0x00\n  dup1\n  revert\ntag_1:\n  pop\n    /* \"Repo/Remix_beginner/test.sol\":199:209  msg.sender */\n  caller\n    /* \"Repo/Remix_beginner/test.sol\":191:196  owner */\n  0x01\n  0x00\n    /* \"Repo/Remix_beginner/test.sol\":191:209  owner = msg.sender */\n  0x0100\n  exp\n  dup2\n  sload\n  dup2\n  0xffffffffffffffffffffffffffffffffffffffff\n  mul\n  not\n  and\n  swap1\n  dup4\n  0xffffffffffffffffffffffffffffffffffffffff\n  and\n  mul\n  or\n  swap1\n  sstore\n  pop\n    /* \"Repo/Remix_beginner/test.sol\":61:719  contract TestContract {... */\n  dataSize(sub_0)\n  dup1\n  dataOffset(sub_0)\n  0x00\n  codecopy\n  0x00\n  return\nstop\n\nsub_0: assembly {\n        /* \"Repo/Remix_beginner/test.sol\":61:719  contract TestContract {... */\n      mstore(0x40, 0x80)\n      jumpi(tag_1, lt(calldatasize, 0x04))\n      shr(0xe0, calldataload(0x00))\n      dup1\n      0x1b9265b8\n      eq\n      tag_2\n      jumpi\n      dup1\n      0x6f9fb98a\n      eq\n      tag_3\n      jumpi\n      dup1\n      0x893d20e8\n      eq\n      tag_4\n      jumpi\n      dup1\n      0xdd26ad80\n      eq\n      tag_5\n      jumpi\n      dup1\n      0xee087163\n      eq\n      tag_6\n      jumpi\n    tag_1:\n      0x00\n      dup1\n      revert\n        /* \"Repo/Remix_beginner/test.sol\":418:498  function pay() public payable {... */\n    tag_2:\n      tag_7\n      tag_8\n      jump\t// in\n    tag_7:\n      stop\n        /* \"Repo/Remix_beginner/test.sol\":222:323  function getContractBalance() view public returns(uint) {... */\n    tag_3:\n      callvalue\n      dup1\n      iszero\n      tag_9\n      jumpi\n      0x00\n      dup1\n      revert\n    tag_9:\n      pop\n      tag_10\n      tag_11\n      jump\t// in\n    tag_10:\n      mload(0x40)\n      tag_12\n      swap2\n      swap1\n      tag_13\n      jump\t// in\n    tag_12:\n      mload(0x40)\n      dup1\n      swap2\n      sub\n      swap1\n      return\n        /* \"Repo/Remix_beginner/test.sol\":334:412  function getOwner() view public returns(address) {... */\n    tag_4:\n      callvalue\n      dup1\n      iszero\n      tag_14\n      jumpi\n      0x00\n      dup1\n      revert\n    tag_14:\n      pop\n      tag_15\n      tag_16\n      jump\t// in\n    tag_15:\n      mload(0x40)\n      tag_17\n      swap2\n      swap1\n      tag_18\n      jump\t// in\n    tag_17:\n      mload(0x40)\n      dup1\n      swap2\n      sub\n      swap1\n      return\n        /* \"Repo/Remix_beginner/test.sol\":504:600  function tranferToOwner() public {... */\n    tag_5:\n      callvalue\n      dup1\n      iszero\n      tag_19\n      jumpi\n      0x00\n      dup1\n      revert\n    tag_19:\n      pop\n      tag_20\n      tag_21\n      jump\t// in\n    tag_20:\n      stop\n        /* \"Repo/Remix_beginner/test.sol\":606:717  function viewingPaymants(address _address) view public returns(uint) {... */\n    tag_6:\n      callvalue\n      dup1\n      iszero\n      tag_22\n      jumpi\n      0x00\n      dup1\n      revert\n    tag_22:\n      pop\n      tag_23\n      0x04\n      dup1\n      calldatasize\n      sub\n      dup2\n      add\n      swap1\n      tag_24\n      swap2\n      swap1\n      tag_25\n      jump\t// in\n    tag_24:\n      tag_26\n      jump\t// in\n    tag_23:\n      mload(0x40)\n      tag_27\n      swap2\n      swap1\n      tag_13\n      jump\t// in\n    tag_27:\n      mload(0x40)\n      dup1\n      swap2\n      sub\n      swap1\n      return\n        /* \"Repo/Remix_beginner/test.sol\":418:498  function pay() public payable {... */\n    tag_8:\n        /* \"Repo/Remix_beginner/test.sol\":482:491  msg.value */\n      callvalue\n        /* \"Repo/Remix_beginner/test.sol\":458:466  cashHist */\n      0x00\n        /* \"Repo/Remix_beginner/test.sol\":458:478  cashHist[msg.sender] */\n      dup1\n        /* \"Repo/Remix_beginner/test.sol\":467:477  msg.sender */\n      caller\n        /* \"Repo/Remix_beginner/test.sol\":458:478  cashHist[msg.sender] */\n      0xffffffffffffffffffffffffffffffffffffffff\n      and\n      0xffffffffffffffffffffffffffffffffffffffff\n      and\n      dup2\n      mstore\n      0x20\n      add\n      swap1\n      dup2\n      mstore\n      0x20\n      add\n      0x00\n      keccak256\n      0x00\n        /* \"Repo/Remix_beginner/test.sol\":458:491  cashHist[msg.sender] += msg.value */\n      dup3\n      dup3\n      sload\n      tag_29\n      swap2\n      swap1\n      tag_30\n      jump\t// in\n    tag_29:\n      swap3\n      pop\n      pop\n      dup2\n      swap1\n      sstore\n      pop\n        /* \"Repo/Remix_beginner/test.sol\":418:498  function pay() public payable {... */\n      jump\t// out\n        /* \"Repo/Remix_beginner/test.sol\":222:323  function getContractBalance() view public returns(uint) {... */\n    tag_11:\n        /* \"Repo/Remix_beginner/test.sol\":272:276  uint */\n      0x00\n        /* \"Repo/Remix_beginner/test.sol\":295:316  address(this).balance */\n      selfbalance\n        /* \"Repo/Remix_beginner/test.sol\":288:316  return address(this).balance */\n      swap1\n      pop\n        /* \"Repo/Remix_beginner/test.sol\":222:323  function getContractBalance() view public returns(uint) {... */\n      swap1\n      jump\t// out\n        /* \"Repo/Remix_beginner/test.sol\":334:412  function getOwner() view public returns(address) {... */\n    tag_16:\n        /* \"Repo/Remix_beginner/test.sol\":374:381  address */\n      0x00\n        /* \"Repo/Remix_beginner/test.sol\":400:405  owner */\n      0x01\n      0x00\n      swap1\n      sload\n      swap1\n      0x0100\n      exp\n      swap1\n      div\n      0xffffffffffffffffffffffffffffffffffffffff\n      and\n        /* \"Repo/Remix_beginner/test.sol\":393:405  return owner */\n      swap1\n      pop\n        /* \"Repo/Remix_beginner/test.sol\":334:412  function getOwner() view public returns(address) {... */\n      swap1\n      jump\t// out\n        /* \"Repo/Remix_beginner/test.sol\":504:600  function tranferToOwner() public {... */\n    tag_21:\n        /* \"Repo/Remix_beginner/test.sol\":555:560  owner */\n      0x01\n      0x00\n      swap1\n      sload\n      swap1\n      0x0100\n      exp\n      swap1\n      div\n      0xffffffffffffffffffffffffffffffffffffffff\n      and\n        /* \"Repo/Remix_beginner/test.sol\":547:570  payable(owner).transfer */\n      0xffffffffffffffffffffffffffffffffffffffff\n      and\n        /* \"Repo/Remix_beginner/test.sol\":547:593  payable(owner).transfer(address(this).balance) */\n      0x08fc\n        /* \"Repo/Remix_beginner/test.sol\":571:592  address(this).balance */\n      selfbalance\n        /* \"Repo/Remix_beginner/test.sol\":547:593  payable(owner).transfer(address(this).balance) */\n      swap1\n      dup2\n      iszero\n      mul\n      swap1\n      mload(0x40)\n      0x00\n      mload(0x40)\n      dup1\n      dup4\n      sub\n      dup2\n      dup6\n      dup9\n      dup9\n      call\n      swap4\n      pop\n      pop\n      pop\n      pop\n      iszero\n      dup1\n      iszero\n      tag_35\n      jumpi\n      returndatasize\n      0x00\n      dup1\n      returndatacopy\n      revert(0x00, returndatasize)\n    tag_35:\n      pop\n        /* \"Repo/Remix_beginner/test.sol\":504:600  function tranferToOwner() public {... */\n      jump\t// out\n        /* \"Repo/Remix_beginner/test.sol\":606:717  function viewingPaymants(address _address) view public returns(uint) {... */\n    tag_26:\n        /* \"Repo/Remix_beginner/test.sol\":669:673  uint */\n      0x00\n        /* \"Repo/Remix_beginner/test.sol\":692:700  cashHist */\n      dup1\n        /* \"Repo/Remix_beginner/test.sol\":692:710  cashHist[_address] */\n      0x00\n        /* \"Repo/Remix_beginner/test.sol\":701:709  _address */\n      dup4\n        /* \"Repo/Remix_beginner/test.sol\":692:710  cashHist[_address] */\n      0xffffffffffffffffffffffffffffffffffffffff\n      and\n      0xffffffffffffffffffffffffffffffffffffffff\n      and\n      dup2\n      mstore\n      0x20\n      add\n      swap1\n      dup2\n      mstore\n      0x20\n      add\n      0x00\n      keccak256\n      sload\n        /* \"Repo/Remix_beginner/test.sol\":685:710  return cashHist[_address] */\n      swap1\n      pop\n        /* \"Repo/Remix_beginner/test.sol\":606:717  function viewingPaymants(address _address) view public returns(uint) {... */\n      swap2\n      swap1\n      pop\n      jump\t// out\n        /* \"#utility.yul\":7:146   */\n    tag_38:\n        /* \"#utility.yul\":53:58   */\n      0x00\n        /* \"#utility.yul\":91:97   */\n      dup2\n        /* \"#utility.yul\":78:98   */\n      calldataload\n        /* \"#utility.yul\":69:98   */\n      swap1\n      pop\n        /* \"#utility.yul\":107:140   */\n      tag_40\n        /* \"#utility.yul\":134:139   */\n      dup2\n        /* \"#utility.yul\":107:140   */\n      tag_41\n      jump\t// in\n    tag_40:\n        /* \"#utility.yul\":7:146   */\n      swap3\n      swap2\n      pop\n      pop\n      jump\t// out\n        /* \"#utility.yul\":152:481   */\n    tag_25:\n        /* \"#utility.yul\":211:217   */\n      0x00\n        /* \"#utility.yul\":260:262   */\n      0x20\n        /* \"#utility.yul\":248:257   */\n      dup3\n        /* \"#utility.yul\":239:246   */\n      dup5\n        /* \"#utility.yul\":235:258   */\n      sub\n        /* \"#utility.yul\":231:263   */\n      slt\n        /* \"#utility.yul\":228:347   */\n      iszero\n      tag_43\n      jumpi\n        /* \"#utility.yul\":266:345   */\n      tag_44\n      tag_45\n      jump\t// in\n    tag_44:\n        /* \"#utility.yul\":228:347   */\n    tag_43:\n        /* \"#utility.yul\":386:387   */\n      0x00\n        /* \"#utility.yul\":411:464   */\n      tag_46\n        /* \"#utility.yul\":456:463   */\n      dup5\n        /* \"#utility.yul\":447:453   */\n      dup3\n        /* \"#utility.yul\":436:445   */\n      dup6\n        /* \"#utility.yul\":432:454   */\n      add\n        /* \"#utility.yul\":411:464   */\n      tag_38\n      jump\t// in\n    tag_46:\n        /* \"#utility.yul\":401:464   */\n      swap2\n      pop\n        /* \"#utility.yul\":357:474   */\n      pop\n        /* \"#utility.yul\":152:481   */\n      swap3\n      swap2\n      pop\n      pop\n      jump\t// out\n        /* \"#utility.yul\":487:605   */\n    tag_47:\n        /* \"#utility.yul\":574:598   */\n      tag_49\n        /* \"#utility.yul\":592:597   */\n      dup2\n        /* \"#utility.yul\":574:598   */\n      tag_50\n      jump\t// in\n    tag_49:\n        /* \"#utility.yul\":569:572   */\n      dup3\n        /* \"#utility.yul\":562:599   */\n      mstore\n        /* \"#utility.yul\":487:605   */\n      pop\n      pop\n      jump\t// out\n        /* \"#utility.yul\":611:729   */\n    tag_51:\n        /* \"#utility.yul\":698:722   */\n      tag_53\n        /* \"#utility.yul\":716:721   */\n      dup2\n        /* \"#utility.yul\":698:722   */\n      tag_54\n      jump\t// in\n    tag_53:\n        /* \"#utility.yul\":693:696   */\n      dup3\n        /* \"#utility.yul\":686:723   */\n      mstore\n        /* \"#utility.yul\":611:729   */\n      pop\n      pop\n      jump\t// out\n        /* \"#utility.yul\":735:957   */\n    tag_18:\n        /* \"#utility.yul\":828:832   */\n      0x00\n        /* \"#utility.yul\":866:868   */\n      0x20\n        /* \"#utility.yul\":855:864   */\n      dup3\n        /* \"#utility.yul\":851:869   */\n      add\n        /* \"#utility.yul\":843:869   */\n      swap1\n      pop\n        /* \"#utility.yul\":879:950   */\n      tag_56\n        /* \"#utility.yul\":947:948   */\n      0x00\n        /* \"#utility.yul\":936:945   */\n      dup4\n        /* \"#utility.yul\":932:949   */\n      add\n        /* \"#utility.yul\":923:929   */\n      dup5\n        /* \"#utility.yul\":879:950   */\n      tag_47\n      jump\t// in\n    tag_56:\n        /* \"#utility.yul\":735:957   */\n      swap3\n      swap2\n      pop\n      pop\n      jump\t// out\n        /* \"#utility.yul\":963:1185   */\n    tag_13:\n        /* \"#utility.yul\":1056:1060   */\n      0x00\n        /* \"#utility.yul\":1094:1096   */\n      0x20\n        /* \"#utility.yul\":1083:1092   */\n      dup3\n        /* \"#utility.yul\":1079:1097   */\n      add\n        /* \"#utility.yul\":1071:1097   */\n      swap1\n      pop\n        /* \"#utility.yul\":1107:1178   */\n      tag_58\n        /* \"#utility.yul\":1175:1176   */\n      0x00\n        /* \"#utility.yul\":1164:1173   */\n      dup4\n        /* \"#utility.yul\":1160:1177   */\n      add\n        /* \"#utility.yul\":1151:1157   */\n      dup5\n        /* \"#utility.yul\":1107:1178   */\n      tag_51\n      jump\t// in\n    tag_58:\n        /* \"#utility.yul\":963:1185   */\n      swap3\n      swap2\n      pop\n      pop\n      jump\t// out\n        /* \"#utility.yul\":1272:1577   */\n    tag_30:\n        /* \"#utility.yul\":1312:1315   */\n      0x00\n        /* \"#utility.yul\":1331:1351   */\n      tag_62\n        /* \"#utility.yul\":1349:1350   */\n      dup3\n        /* \"#utility.yul\":1331:1351   */\n      tag_54\n      jump\t// in\n    tag_62:\n        /* \"#utility.yul\":1326:1351   */\n      swap2\n      pop\n        /* \"#utility.yul\":1365:1385   */\n      tag_63\n        /* \"#utility.yul\":1383:1384   */\n      dup4\n        /* \"#utility.yul\":1365:1385   */\n      tag_54\n      jump\t// in\n    tag_63:\n        /* \"#utility.yul\":1360:1385   */\n      swap3\n      pop\n        /* \"#utility.yul\":1519:1520   */\n      dup3\n        /* \"#utility.yul\":1451:1517   */\n      0xffffffffffffffffffffffffffffffffffffffffffffffffffffffffffffffff\n        /* \"#utility.yul\":1447:1521   */\n      sub\n        /* \"#utility.yul\":1444:1445   */\n      dup3\n        /* \"#utility.yul\":1441:1522   */\n      gt\n        /* \"#utility.yul\":1438:1545   */\n      iszero\n      tag_64\n      jumpi\n        /* \"#utility.yul\":1525:1543   */\n      tag_65\n      tag_66\n      jump\t// in\n    tag_65:\n        /* \"#utility.yul\":1438:1545   */\n    tag_64:\n        /* \"#utility.yul\":1569:1570   */\n      dup3\n        /* \"#utility.yul\":1566:1567   */\n      dup3\n        /* \"#utility.yul\":1562:1571   */\n      add\n        /* \"#utility.yul\":1555:1571   */\n      swap1\n      pop\n        /* \"#utility.yul\":1272:1577   */\n      swap3\n      swap2\n      pop\n      pop\n      jump\t// out\n        /* \"#utility.yul\":1583:1679   */\n    tag_50:\n        /* \"#utility.yul\":1620:1627   */\n      0x00\n        /* \"#utility.yul\":1649:1673   */\n      tag_68\n        /* \"#utility.yul\":1667:1672   */\n      dup3\n        /* \"#utility.yul\":1649:1673   */\n      tag_69\n      jump\t// in\n    tag_68:\n        /* \"#utility.yul\":1638:1673   */\n      swap1\n      pop\n        /* \"#utility.yul\":1583:1679   */\n      swap2\n      swap1\n      pop\n      jump\t// out\n        /* \"#utility.yul\":1685:1811   */\n    tag_69:\n        /* \"#utility.yul\":1722:1729   */\n      0x00\n        /* \"#utility.yul\":1762:1804   */\n      0xffffffffffffffffffffffffffffffffffffffff\n        /* \"#utility.yul\":1755:1760   */\n      dup3\n        /* \"#utility.yul\":1751:1805   */\n      and\n        /* \"#utility.yul\":1740:1805   */\n      swap1\n      pop\n        /* \"#utility.yul\":1685:1811   */\n      swap2\n      swap1\n      pop\n      jump\t// out\n        /* \"#utility.yul\":1817:1894   */\n    tag_54:\n        /* \"#utility.yul\":1854:1861   */\n      0x00\n        /* \"#utility.yul\":1883:1888   */\n      dup2\n        /* \"#utility.yul\":1872:1888   */\n      swap1\n      pop\n        /* \"#utility.yul\":1817:1894   */\n      swap2\n      swap1\n      pop\n      jump\t// out\n        /* \"#utility.yul\":1900:2080   */\n    tag_66:\n        /* \"#utility.yul\":1948:2025   */\n      0x4e487b7100000000000000000000000000000000000000000000000000000000\n        /* \"#utility.yul\":1945:1946   */\n      0x00\n        /* \"#utility.yul\":1938:2026   */\n      mstore\n        /* \"#utility.yul\":2045:2049   */\n      0x11\n        /* \"#utility.yul\":2042:2043   */\n      0x04\n        /* \"#utility.yul\":2035:2050   */\n      mstore\n        /* \"#utility.yul\":2069:2073   */\n      0x24\n        /* \"#utility.yul\":2066:2067   */\n      0x00\n        /* \"#utility.yul\":2059:2074   */\n      revert\n        /* \"#utility.yul\":2209:2326   */\n    tag_45:\n        /* \"#utility.yul\":2318:2319   */\n      0x00\n        /* \"#utility.yul\":2315:2316   */\n      dup1\n        /* \"#utility.yul\":2308:2320   */\n      revert\n        /* \"#utility.yul\":2332:2454   */\n    tag_41:\n        /* \"#utility.yul\":2405:2429   */\n      tag_77\n        /* \"#utility.yul\":2423:2428   */\n      dup2\n        /* \"#utility.yul\":2405:2429   */\n      tag_50\n      jump\t// in\n    tag_77:\n        /* \"#utility.yul\":2398:2403   */\n      dup2\n        /* \"#utility.yul\":2395:2430   */\n      eq\n        /* \"#utility.yul\":2385:2448   */\n      tag_78\n      jumpi\n        /* \"#utility.yul\":2444:2445   */\n      0x00\n        /* \"#utility.yul\":2441:2442   */\n      dup1\n        /* \"#utility.yul\":2434:2446   */\n      revert\n        /* \"#utility.yul\":2385:2448   */\n    tag_78:\n        /* \"#utility.yul\":2332:2454   */\n      pop\n      jump\t// out\n\n    auxdata: 0xa2646970667358221220a587cbf391e10de32d81cfc73216952fb4966be0443f33183e40e3c00da8e1d164736f6c63430008070033\n}\n",
				"bytecode": {
					"linkReferences": {},
					"object": "608060405234801561001057600080fd5b5033600160006101000a81548173ffffffffffffffffffffffffffffffffffffffff021916908373ffffffffffffffffffffffffffffffffffffffff1602179055506103e8806100616000396000f3fe60806040526004361061004a5760003560e01c80631b9265b81461004f5780636f9fb98a14610059578063893d20e814610084578063dd26ad80146100af578063ee087163146100c6575b600080fd5b610057610103565b005b34801561006557600080fd5b5061006e61015a565b60405161007b91906102ba565b60405180910390f35b34801561009057600080fd5b50610099610162565b6040516100a6919061029f565b60405180910390f35b3480156100bb57600080fd5b506100c461018c565b005b3480156100d257600080fd5b506100ed60048036038101906100e89190610254565b6101f7565b6040516100fa91906102ba565b60405180910390f35b346000803373ffffffffffffffffffffffffffffffffffffffff1673ffffffffffffffffffffffffffffffffffffffff168152602001908152602001600020600082825461015191906102d5565b92505081905550565b600047905090565b6000600160009054906101000a900473ffffffffffffffffffffffffffffffffffffffff16905090565b600160009054906101000a900473ffffffffffffffffffffffffffffffffffffffff1673ffffffffffffffffffffffffffffffffffffffff166108fc479081150290604051600060405180830381858888f193505050501580156101f4573d6000803e3d6000fd5b50565b60008060008373ffffffffffffffffffffffffffffffffffffffff1673ffffffffffffffffffffffffffffffffffffffff168152602001908152602001600020549050919050565b60008135905061024e8161039b565b92915050565b60006020828403121561026a57610269610396565b5b60006102788482850161023f565b91505092915050565b61028a8161032b565b82525050565b6102998161035d565b82525050565b60006020820190506102b46000830184610281565b92915050565b60006020820190506102cf6000830184610290565b92915050565b60006102e08261035d565b91506102eb8361035d565b9250827fffffffffffffffffffffffffffffffffffffffffffffffffffffffffffffffff038211156103205761031f610367565b5b828201905092915050565b60006103368261033d565b9050919050565b600073ffffffffffffffffffffffffffffffffffffffff82169050919050565b6000819050919050565b7f4e487b7100000000000000000000000000000000000000000000000000000000600052601160045260246000fd5b600080fd5b6103a48161032b565b81146103af57600080fd5b5056fea2646970667358221220a587cbf391e10de32d81cfc73216952fb4966be0443f33183e40e3c00da8e1d164736f6c63430008070033",
					"opcodes": "PUSH1 0x80 PUSH1 0x40 MSTORE CALLVALUE DUP1 ISZERO PUSH2 0x10 JUMPI PUSH1 0x0 DUP1 REVERT JUMPDEST POP CALLER PUSH1 0x1 PUSH1 0x0 PUSH2 0x100 EXP DUP2 SLOAD DUP2 PUSH20 0xFFFFFFFFFFFFFFFFFFFFFFFFFFFFFFFFFFFFFFFF MUL NOT AND SWAP1 DUP4 PUSH20 0xFFFFFFFFFFFFFFFFFFFFFFFFFFFFFFFFFFFFFFFF AND MUL OR SWAP1 SSTORE POP PUSH2 0x3E8 DUP1 PUSH2 0x61 PUSH1 0x0 CODECOPY PUSH1 0x0 RETURN INVALID PUSH1 0x80 PUSH1 0x40 MSTORE PUSH1 0x4 CALLDATASIZE LT PUSH2 0x4A JUMPI PUSH1 0x0 CALLDATALOAD PUSH1 0xE0 SHR DUP1 PUSH4 0x1B9265B8 EQ PUSH2 0x4F JUMPI DUP1 PUSH4 0x6F9FB98A EQ PUSH2 0x59 JUMPI DUP1 PUSH4 0x893D20E8 EQ PUSH2 0x84 JUMPI DUP1 PUSH4 0xDD26AD80 EQ PUSH2 0xAF JUMPI DUP1 PUSH4 0xEE087163 EQ PUSH2 0xC6 JUMPI JUMPDEST PUSH1 0x0 DUP1 REVERT JUMPDEST PUSH2 0x57 PUSH2 0x103 JUMP JUMPDEST STOP JUMPDEST CALLVALUE DUP1 ISZERO PUSH2 0x65 JUMPI PUSH1 0x0 DUP1 REVERT JUMPDEST POP PUSH2 0x6E PUSH2 0x15A JUMP JUMPDEST PUSH1 0x40 MLOAD PUSH2 0x7B SWAP2 SWAP1 PUSH2 0x2BA JUMP JUMPDEST PUSH1 0x40 MLOAD DUP1 SWAP2 SUB SWAP1 RETURN JUMPDEST CALLVALUE DUP1 ISZERO PUSH2 0x90 JUMPI PUSH1 0x0 DUP1 REVERT JUMPDEST POP PUSH2 0x99 PUSH2 0x162 JUMP JUMPDEST PUSH1 0x40 MLOAD PUSH2 0xA6 SWAP2 SWAP1 PUSH2 0x29F JUMP JUMPDEST PUSH1 0x40 MLOAD DUP1 SWAP2 SUB SWAP1 RETURN JUMPDEST CALLVALUE DUP1 ISZERO PUSH2 0xBB JUMPI PUSH1 0x0 DUP1 REVERT JUMPDEST POP PUSH2 0xC4 PUSH2 0x18C JUMP JUMPDEST STOP JUMPDEST CALLVALUE DUP1 ISZERO PUSH2 0xD2 JUMPI PUSH1 0x0 DUP1 REVERT JUMPDEST POP PUSH2 0xED PUSH1 0x4 DUP1 CALLDATASIZE SUB DUP2 ADD SWAP1 PUSH2 0xE8 SWAP2 SWAP1 PUSH2 0x254 JUMP JUMPDEST PUSH2 0x1F7 JUMP JUMPDEST PUSH1 0x40 MLOAD PUSH2 0xFA SWAP2 SWAP1 PUSH2 0x2BA JUMP JUMPDEST PUSH1 0x40 MLOAD DUP1 SWAP2 SUB SWAP1 RETURN JUMPDEST CALLVALUE PUSH1 0x0 DUP1 CALLER PUSH20 0xFFFFFFFFFFFFFFFFFFFFFFFFFFFFFFFFFFFFFFFF AND PUSH20 0xFFFFFFFFFFFFFFFFFFFFFFFFFFFFFFFFFFFFFFFF AND DUP2 MSTORE PUSH1 0x20 ADD SWAP1 DUP2 MSTORE PUSH1 0x20 ADD PUSH1 0x0 KECCAK256 PUSH1 0x0 DUP3 DUP3 SLOAD PUSH2 0x151 SWAP2 SWAP1 PUSH2 0x2D5 JUMP JUMPDEST SWAP3 POP POP DUP2 SWAP1 SSTORE POP JUMP JUMPDEST PUSH1 0x0 SELFBALANCE SWAP1 POP SWAP1 JUMP JUMPDEST PUSH1 0x0 PUSH1 0x1 PUSH1 0x0 SWAP1 SLOAD SWAP1 PUSH2 0x100 EXP SWAP1 DIV PUSH20 0xFFFFFFFFFFFFFFFFFFFFFFFFFFFFFFFFFFFFFFFF AND SWAP1 POP SWAP1 JUMP JUMPDEST PUSH1 0x1 PUSH1 0x0 SWAP1 SLOAD SWAP1 PUSH2 0x100 EXP SWAP1 DIV PUSH20 0xFFFFFFFFFFFFFFFFFFFFFFFFFFFFFFFFFFFFFFFF AND PUSH20 0xFFFFFFFFFFFFFFFFFFFFFFFFFFFFFFFFFFFFFFFF AND PUSH2 0x8FC SELFBALANCE SWAP1 DUP2 ISZERO MUL SWAP1 PUSH1 0x40 MLOAD PUSH1 0x0 PUSH1 0x40 MLOAD DUP1 DUP4 SUB DUP2 DUP6 DUP9 DUP9 CALL SWAP4 POP POP POP POP ISZERO DUP1 ISZERO PUSH2 0x1F4 JUMPI RETURNDATASIZE PUSH1 0x0 DUP1 RETURNDATACOPY RETURNDATASIZE PUSH1 0x0 REVERT JUMPDEST POP JUMP JUMPDEST PUSH1 0x0 DUP1 PUSH1 0x0 DUP4 PUSH20 0xFFFFFFFFFFFFFFFFFFFFFFFFFFFFFFFFFFFFFFFF AND PUSH20 0xFFFFFFFFFFFFFFFFFFFFFFFFFFFFFFFFFFFFFFFF AND DUP2 MSTORE PUSH1 0x20 ADD SWAP1 DUP2 MSTORE PUSH1 0x20 ADD PUSH1 0x0 KECCAK256 SLOAD SWAP1 POP SWAP2 SWAP1 POP JUMP JUMPDEST PUSH1 0x0 DUP2 CALLDATALOAD SWAP1 POP PUSH2 0x24E DUP2 PUSH2 0x39B JUMP JUMPDEST SWAP3 SWAP2 POP POP JUMP JUMPDEST PUSH1 0x0 PUSH1 0x20 DUP3 DUP5 SUB SLT ISZERO PUSH2 0x26A JUMPI PUSH2 0x269 PUSH2 0x396 JUMP JUMPDEST JUMPDEST PUSH1 0x0 PUSH2 0x278 DUP5 DUP3 DUP6 ADD PUSH2 0x23F JUMP JUMPDEST SWAP2 POP POP SWAP3 SWAP2 POP POP JUMP JUMPDEST PUSH2 0x28A DUP2 PUSH2 0x32B JUMP JUMPDEST DUP3 MSTORE POP POP JUMP JUMPDEST PUSH2 0x299 DUP2 PUSH2 0x35D JUMP JUMPDEST DUP3 MSTORE POP POP JUMP JUMPDEST PUSH1 0x0 PUSH1 0x20 DUP3 ADD SWAP1 POP PUSH2 0x2B4 PUSH1 0x0 DUP4 ADD DUP5 PUSH2 0x281 JUMP JUMPDEST SWAP3 SWAP2 POP POP JUMP JUMPDEST PUSH1 0x0 PUSH1 0x20 DUP3 ADD SWAP1 POP PUSH2 0x2CF PUSH1 0x0 DUP4 ADD DUP5 PUSH2 0x290 JUMP JUMPDEST SWAP3 SWAP2 POP POP JUMP JUMPDEST PUSH1 0x0 PUSH2 0x2E0 DUP3 PUSH2 0x35D JUMP JUMPDEST SWAP2 POP PUSH2 0x2EB DUP4 PUSH2 0x35D JUMP JUMPDEST SWAP3 POP DUP3 PUSH32 0xFFFFFFFFFFFFFFFFFFFFFFFFFFFFFFFFFFFFFFFFFFFFFFFFFFFFFFFFFFFFFFFF SUB DUP3 GT ISZERO PUSH2 0x320 JUMPI PUSH2 0x31F PUSH2 0x367 JUMP JUMPDEST JUMPDEST DUP3 DUP3 ADD SWAP1 POP SWAP3 SWAP2 POP POP JUMP JUMPDEST PUSH1 0x0 PUSH2 0x336 DUP3 PUSH2 0x33D JUMP JUMPDEST SWAP1 POP SWAP2 SWAP1 POP JUMP JUMPDEST PUSH1 0x0 PUSH20 0xFFFFFFFFFFFFFFFFFFFFFFFFFFFFFFFFFFFFFFFF DUP3 AND SWAP1 POP SWAP2 SWAP1 POP JUMP JUMPDEST PUSH1 0x0 DUP2 SWAP1 POP SWAP2 SWAP1 POP JUMP JUMPDEST PUSH32 0x4E487B7100000000000000000000000000000000000000000000000000000000 PUSH1 0x0 MSTORE PUSH1 0x11 PUSH1 0x4 MSTORE PUSH1 0x24 PUSH1 0x0 REVERT JUMPDEST PUSH1 0x0 DUP1 REVERT JUMPDEST PUSH2 0x3A4 DUP2 PUSH2 0x32B JUMP JUMPDEST DUP2 EQ PUSH2 0x3AF JUMPI PUSH1 0x0 DUP1 REVERT JUMPDEST POP JUMP INVALID LOG2 PUSH5 0x6970667358 0x22 SLT KECCAK256 0xA5 DUP8 0xCB RETURN SWAP2 0xE1 0xD 0xE3 0x2D DUP2 0xCF 0xC7 ORIGIN AND SWAP6 0x2F 0xB4 SWAP7 PUSH12 0xE0443F33183E40E3C00DA8E1 0xD1 PUSH5 0x736F6C6343 STOP ADDMOD SMOD STOP CALLER "
				},
				"gasEstimates": {
					"creation": {
						"codeDepositCost": "200000",
						"executionCost": "24511",
						"totalCost": "224511"
					},
					"external": {
						"getContractBalance()": "339",
						"getOwner()": "2544",
						"pay()": "infinite",
						"tranferToOwner()": "infinite",
						"viewingPaymants(address)": "2907"
					}
				},
				"methodIdentifiers": {
					"getContractBalance()": "6f9fb98a",
					"getOwner()": "893d20e8",
					"pay()": "1b9265b8",
					"tranferToOwner()": "dd26ad80",
					"viewingPaymants(address)": "ee087163"
				}
			},
			"storageLayout": {
				"storage": [
					{
						"astId": 5,
						"contract": "Repo/Remix_beginner/test.sol:TestContract",
						"label": "cashHist",
						"offset": 0,
						"slot": "0",
						"type": "t_mapping(t_address,t_uint256)"
					},
					{
						"astId": 7,
						"contract": "Repo/Remix_beginner/test.sol:TestContract",
						"label": "owner",
						"offset": 0,
						"slot": "1",
						"type": "t_address"
					}
				],
				"types": {
					"t_address": {
						"encoding": "inplace",
						"label": "address",
						"numberOfBytes": "20"
					},
					"t_mapping(t_address,t_uint256)": {
						"encoding": "mapping",
						"key": "t_address",
						"label": "mapping(address => uint256)",
						"numberOfBytes": "32",
						"value": "t_uint256"
					},
					"t_uint256": {
						"encoding": "inplace",
						"label": "uint256",
						"numberOfBytes": "32"
					}
				}
			},
			"userdoc": {
				"kind": "user",
				"methods": {},
				"version": 1
			}
		}
	}
}